:100000000C94B2010C94E3010C94E3010C94E30111
:100010000C94E3010C94E3010C94E3010C94E301D0
:100020000C94E3010C94E3010C94E3010C94E301C0
:100030000C94E3010C94E3010C94E3010C94E301B0
:100040000C94E3010C94E3010C94E3010C94E301A0
:100050000C94E3010C94E3010C94E3010C945B1EFB
:100060000C94E3010C94E3010C94E3010C94E30180
:100070000C94E3010C94E3010C94E3010C94E30170
:100080000C94E3010C94E3010C94E3010C94E30160
:100090000C94E3010C94E3010C94E3010C94E30150
:1000A0000C94E3010C94E3010C94E3010C94E30140
:1000B0000C94E3010C94E3010C94E3010C94EC0325
:1000C0000C94E3010C94E3010C94E3010C94E30120
:1000D0000C94E3010C94E3010C94E3010C94E30110
:1000E0000C94E30180098309720976097A09BA0937
:1000F00087098B099109950999099F09A309A709FE
:10010000BA09AD09B109B509AD17BF17C217C917AB
:10011000D017FE17051812181F182B182B182B189C
:100120002B182B182B182B182B182B182B182B18B7
:100130002B182B182B182B182B182B182B182B18A7
:100140002B182B182B182B18AD17BA17BF17C2175F
:10015000C917D017D717E417F11707634236B79BB3
:10016000D8A71A39685618AEBAAB558C1D3CB7CC17
:100170005763BD6DEDFD753EF6177231BF0000008F
:10018000803F08000000BE922449123EABAAAA2A72
:10019000BECDCCCC4C3E00000080BEABAAAAAA3E8D
:1001A00000000000BF000000803F000000000008C9
:1001B0004178D3BB4387D1133D190E3CC3BD428266
:1001C000AD2B3E68EC8276BED98FE1A93E4C80EF24
:1001D000FFBE01C4FF7F3F00000000000C94BA176F
:1001E0000C948B090C94F1170C94B1090C94990997
:1001F0000C94C9170C94B5090C94FC2B0C947A0937
:100200000C9480090C94BF170C94D0170C941F18F1
:100210000C94FE170C94C2170C94AD090C9476093B
:100220000C942B180C9491090C9495090C94E417D8
:100230000C94BA090C94D7170C9412180C949F09BB
:100240000C9487090C94A3090C9472090C94A709C7
:100250000C9405180C94AD170C9483090000210030
:10026000240027002A002D00300033000101000087
:10027000040107010A0100002200250028002B00CC
:100280002E003100340002010000050108010B01BD
:1002900005050505070508080808020202020A0A02
:1002A0000808040404040101010101010101030320
:1002B000030303030303040707070C0C0C0C0C0CCB
:1002C0000C0C0202020206060606060606060B0BC8
:1002D0000B0B0B0B0B0B0102102020080810204009
:1002E00010204080020102010804020101020408FA
:1002F0001020408080402010080402018004020188
:1003000080402010080402010804020101020408D0
:1003100010204080010204081020408000000A0BD9
:1003200002090C0D0E080703040100000000000084
:1003300000000000000000000000000000000000BD
:10034000000000000000000012111000000000007A
:10035000000000000000000000000000000000009D
:100360000000FC2B11241FBECFEFD1E2DEBFCDBFBA
:1003700000E00CBF13E0A0E0B2E0E2ECF3E600E046
:100380000BBF02C007900D92A03EB107D9F727E03E
:10039000A0EEB3E001C01D92A330B207E1F711E077
:1003A000C2EBD1E000E006C021970109802FFE01D9
:1003B0000E94842DC13BD10780E00807A9F70E9465
:1003C000A51E0C94DF310C940000FC0110821182F8
:1003D0001382128214821582168217821086128668
:1003E000118613861486158616861786118A108A3A
:1003F000128A138A148A158A168A108E178A118E09
:10040000128E138E148E158E12A213A214A215A290
:1004100016A217A210AA11AA12AA13AA14AA15AA00
:1004200016AE17AEDC01DE9616961D921D921D9239
:100430001C9219971E961C9211961C921197169653
:100440001D921D921D921C9219971E961C92119638
:100450001C92119716961D921D921D921C9219972F
:100460001E961C9211961C92119716961D921D9223
:100470001D921C9219971E961C9211961C92119710
:1004800016961D921D921D921C9219971E961C92F3
:1004900011961C92509682E08C9311961C921196A4
:1004A0001C9211961C92119611961C921E921296F5
:1004B00011961C921E9212961D921D921D921C92D4
:1004C000139714961D921D921D921C9213971496C9
:1004D0001D921D921D921C92139714961D921D92AF
:1004E0001D921C921397EA57FF4F10820895579A56
:1004F0005F9883B3866083BB84B3897F84BB089590
:1005000092B19F7092B992B180E1689FB0011124BD
:10051000692B62B9409A409808950F931F93CF9327
:100520008C01C62F62956F700E9480026C2F6F70D5
:10053000C801CF911F910F910C948002409A83E0E3
:1005400090E00197F1F780B14098807F08951F9364
:10055000CF93DF93EC014198429A81B18F7081B9BA
:1005600082B1806F82B9CE010E949E02182FCE0107
:100570000E949E0281B1806F81B982B18F7082B971
:10058000812F881F8827881FDF91CF911F910895A1
:100590000F931F93CF938C01C62FC8010E94A7020F
:1005A0008111FBCF88B1897F88B96C2F6068C80141
:1005B000CF911F910F910C948D02CF93DF93EC019B
:1005C0008A859B85AC85BD858E839F83A887B987E7
:1005D0000E94E80E6A837B838C839D8381E08983FC
:1005E0008883DF91CF910895CF93DF93EC018E81C3
:1005F0009F81A885B9858A839B83AC83BD830E9434
:10060000E80E6A877B878C879D8781E08983888352
:10061000DF91CF9108952F923F924F925F926F9208
:100620007F928F929F92AF92BF92CF92DF92EF9282
:10063000FF920F931F93CF93DF93D82FC92F8B0176
:100640000E94C32C24E630E040E050E00E94432D9D
:1006500049015A019B01AC0160E876E988E990E024
:100660000E94FF2C6B017C01F80191828082ED2FAA
:10067000FC2F2191822F022E000C990BC0970A9714
:10068000C0F32E3239F51F0180E8882E86E9982EB6
:1006900088E9A82EB12C9AE0492E512C612C712C9E
:1006A000F101C1911F010C2E000CDD0BE097CA3047
:1006B000D10580F4C501B401A30192010E94432D2C
:1006C00049015A01DE010E94AD2DC60ED71EE81E5B
:1006D000F91EE6CFA5E0B0E0A70196010E94A22D89
:1006E0006F5F7F4F8F4F9F4F23E030E040E050E03F
:1006F0000E94432DF801228333834483558316825D
:10070000DF91CF911F910F91FF90EF90DF90CF90ED
:10071000BF90AF909F908F907F906F905F904F9021
:100720003F902F900895FF920F931F93CF93DF93E5
:10073000EC01F8802DE2F21201C02196CE010E9458
:10074000C32C9B01AC01A4E6B0E00E94A22DFE01E7
:100750004991242F042E000C330B205331092A30E9
:100760003105A8F34E3241F52181022E000C330BE6
:10077000205331092A303105F8F44AE0429F8001C4
:10078000439F100D1124012E000C220B330B600F20
:10079000711F821F931F0281002E000C110B00534A
:1007A00011090A30110540F4012E000C220B330B05
:1007B000600F711F821F931F2DE2F21207C09095E8
:1007C0008095709561957F4F8F4F9F4FDF91CF91AF
:1007D0001F910F91FF9008951F920F920FB60F92E5
:1007E00011240BB60F92CF92DF92FF920F931F93BB
:1007F0002F933F934F935F936F937F938F939F9329
:10080000AF93BF93CF93DF93EF93FF93C0915A04BD
:10081000D0915B04FE01E05BFF4F8081882311F1E2
:1008200060E0CE010E94C8028E016E0144E1C40E58
:10083000D11CC016D10679F0F801F1908F01CE01DC
:100840000E94A7028111FBCF419A42986F2DCE01E1
:100850000E948D02EECFE0915A04F0915B04E05BC0
:10086000FF4F1082C0915A04D0915B04FE01EF5AF1
:10087000FF4F8081882321F160E4CE010E94C802ED
:100880008E010C5E1F4F6E01F8E2CF0ED11CC01618
:10089000D10679F0F801F1908F01CE010E94A702F4
:1008A0008111FBCF419A42986F2DCE010E948D029B
:1008B000EECFE0915A04F0915B04EF5AFF4F1082A3
:1008C000E0915804F091590420917900822F90E032
:1008D0004FEF50E0481B590B44315105F4F182357C
:1008E000910524F085369105D4F107C041E550E02B
:1008F000481B590B4431510594F18332910524F082
:100900008633910574F107C042E250E0481B590B51
:100910004431510534F124512C3E28F58B37910593
:1009200024F08E3891050CF107C02AE730E0281B2F
:10093000390B24313105CCF08C3B910524F08F3CF0
:100940009105ACF008C02BEB30E0A901481B590B16
:100950004431510564F083E60BC080E009C081E0BA
:1009600007C082E005C083E003C084E001C085E0E9
:1009700087838781833631F196818781981320C0E0
:1009800087818583948185819817E1F08481811125
:1009900014C085818483958120858185281791F0F5
:1009A000808521E0280F2087DF01A80FB11D9C93CF
:1009B0008085843039F4108605C08581848302C027
:1009C00087818683FF91EF91DF91CF91BF91AF91A6
:1009D0009F918F917F916F915F914F913F912F9157
:1009E0001F910F91FF90DF90CF900F900BBE0F9053
:1009F0000FBE0F901F9018956093E0037093E10372
:100A00008093E2039093E303DC01CB01845D9E4F6E
:100A1000AF4FBF4F8093540490935504A093560456
:100A2000B093570482E090E0909353048093520473
:100A30000E94E80E60934E0470934F04809350041C
:100A4000909351040895CF92DF92EF92FF920F930B
:100A50001F930E94E80E00914E0410914F042091C4
:100A60005004309151046B017C01C01AD10AE20A92
:100A7000F30A6091E0037091E1038091E2039091A9
:100A8000E30348EEC41643E0D406E104F104D0F0D9
:100A9000DC01CB010196A11DB11D8093E003909371
:100AA000E103A093E203B093E30308511C4F2F4FDF
:100AB0003F4F00934E0410934F0420935004309303
:100AC0005104C7CF1F910F91FF90EF90DF90CF900F
:100AD00008954F925F926F927F928F929F92AF9202
:100AE000BF92CF92DF92EF92FF920F931F93CF931B
:100AF000DF934B015C0180914A0490914B04A091DB
:100B00004C04B0914D0488159905AA05BB0509F45C
:100B1000D2C08CE3C82ED12CE12CF12CC501B4013C
:100B2000A70196010E94432D6093E403CA01B90115
:100B3000A70196010E94432D6093E503C501B4010E
:100B400020E13EE040E050E00E94432DCA01B9019F
:100B500028E130E040E050E00E94432D6093E6033E
:100B6000C501B40120E831E541E050E00E94432D89
:100B700069017A01CA01B9016C5F7F4F8F4F9F4FA6
:100B800027E030E040E050E00E94432D6F5F60932B
:100B9000E703412C512C320140E004E610E0C0E9AB
:100BA000D1E0242F30E02E54384FF901E370FF27B5
:100BB000309789F4C901B8010E942F2D892B31F497
:100BC000C901BE010E942F2D892B29F48EE691E0E8
:100BD000A0E0B0E004C08DE691E0A0E0B0E0480EF7
:100BE000591E6A1E7B1ED301C201AA27BB27C81645
:100BF000D906EA06FB0610F04F5FD3CF4093EA0315
:100C0000309799F4C90164E670E00E942F2D892B7A
:100C100039F4C90160E971E00E942F2D892B29F474
:100C20008EE691E0A0E0B0E004C08DE691E0A0E0A7
:100C3000B0E0481A590A6A0A7B0AC418D508E608BF
:100C4000F708C90164E670E00E942F2DEC01C9018C
:100C500060E971E00E942F2DA1E0B2E020E0213098
:100C600039F4309749F4209729F4009729F402C009
:100C70004C9103C04DE101C04CE150E060E070E0F8
:100C8000C416D506E606F70640F0C41AD50AE60AE9
:100C9000F70A2F5F11962C3011F72F5F2093E9038D
:100CA000C394C092E80380924A0490924B04A092AD
:100CB0004C04B0924D04DF91CF911F910F91FF90A2
:100CC000EF90DF90CF90BF90AF909F908F907F90EC
:100CD0006F905F904F900895FC018091BC0087FD5C
:100CE0000CC080819181019691838083883E9340DE
:100CF000A1F71182108280E008951182108281E0B4
:100D000008951F93CF93DF93EC0114EA1093BC0076
:100D1000CE010E946C06882351F01B821A829091AA
:100D2000B900987F81E0983069F080E00BC02A819B
:100D30003B812F5F3F4F3B832A832A30310531F7B8
:100D40001B821A82DF91CF911F910895FC011182BD
:100D50001082138212826436710549F06039F1E025
:100D60007F0739F06733710549F481E003C088E4F7
:100D700001C08CE08093B8001092B900089560E043
:100D8000FC0180810E94510965E070E080E090E004
:100D90000C94F4096EBD0DB407FEFDCF8EB5089519
:100DA0000F931F93CF93DF9300D01F92CDB7DEB781
:100DB000062F142FFC0160817181CE0101960E94E3
:100DC000A606CE0101960E948106811102C010E0A4
:100DD00018C060EDCE0101960E94720F8823B9F30E
:100DE000602FCE0101960E94600F882381F3612F4E
:100DF000CE0101960E94600F182F882341F30E94B4
:100E0000F40E812F0F900F900F900F90DF91CF91E4
:100E10001F910F910895DC01FC01749620E22D933F
:100E2000AE17BF07E1F79C01285D3F4F40E24193B9
:100E3000E217F307E1F7FC01EF5AFF4F21E02083AF
:100E4000319720830895EF92FF920F931F93CF93D2
:100E5000DF93CDB7DEB7C65BD2400FB6F894DEBFE6
:100E60000FBECDBF88B1897F88B96FE070E080E0A8
:100E700090E00E94F40963E085EF93E00E94800215
:100E800065E070E080E090E00E94F40963E085EFA7
:100E900093E00E94800261E070E080E090E00E94B8
:100EA000F40963E085EF93E00E94800261E070E066
:100EB00080E090E00E94F40962E085EF93E00E94F8
:100EC000800268E285EF93E00E948D0261E070E0AD
:100ED00080E090E00E94F40968E085EF93E00E94D2
:100EE0008D0261E070E080E090E00E94F40961E032
:100EF00085EF93E00E948D0261E070E080E090E079
:100F00000E94F40966E085EF93E00E948D0261E0A3
:100F100070E080E090E00E94F4096FE085EF93E0DC
:100F20000E948D0261E070E080E090E00E94F40990
:100F300085EF93E00E940B0785EF93E00E94A702E4
:100F40008111FACF88B1897F88B96CE085EF93E091
:100F50000E948D0245EFE42E43E0F42EF0925B04F4
:100F6000E0925A040BEE13E01093590400935804D6
:100F7000F894109220011092210182EE94E0909357
:100F80002901809328018CE08093210180917300D6
:100F90008260809373007894CE014D960E94E501A3
:100FA000CE0184539F4F0E9477028DEF9FEFC55271
:100FB000DF4F99838883CB5DD040C35FDD4F1982BB
:100FC0001882CD50D24080E090E4C15FDD4F99831C
:100FD0008883CF50D240CF5EDD4F99838883C15143
:100FE000D240CD5EDD4F99838883C351D24080E0EB
:100FF00090E2CB5EDD4F99838883C551D240C95EB4
:10100000DD4F99838883C751D240C75EDD4F9983F6
:101010008883C951D24080E090E0A0E8BFE3C15C82
:10102000DD4F88839983AA83BB83CF53D240CD5BA6
:10103000DD4F188219821A821B82C354D240C95BC9
:10104000DD4F188219821A821B82C754D240C55BB9
:10105000DD4F188219821A821B82CB54D240C15BA9
:10106000DD4F188219821A821B82CF54D240CD5A8A
:10107000DD4F188219821A821B82C355D240C95A89
:10108000DD4F188219821A821B82C755D240C55A79
:10109000DD4F188219821A821B82CB55D24083EC15
:1010A00098EBA2E3BFE3C15ADD4F88839983AA83FB
:1010B000BB83CF55D24086E39AEFAEE0BDE3CD5976
:1010C000DD4F88839983AA83BB83C356D2408EE0C9
:1010D00097ECAAE1BFE3C959DD4F88839983AA83BE
:1010E000BB83C756D24083EE94EAA7EFBCE3C55951
:1010F000DD4F88839983AA83BB83CB56D240C653E6
:10110000DF4FF982E882CA5CD040C353DF4F1983B6
:101110000883CD5CD0401092C50080E18093C4006C
:1011200092E09093C00018E11093C10086E0809394
:10113000C2001A8E198E109235012FEC20933401C3
:1011400090933001109331018093320183E090E05D
:101150009C8F8B8F87E390E0C156DD4F9983888306
:10116000CF59D24041E06BE6CE0181569D4F0E949F
:10117000D00668EC70E080E090E00E94F40946E060
:101180006AE1CE0181569D4F0E94D00649E069E197
:10119000CE0181569D4F0E94D006FE01E156FD4FC3
:1011A000DE01119601900D921A95E1F780EAC15384
:1011B000DF4F8883CF5CD040C053DF4F1882198245
:1011C0001A821B82C05DD0408FEF9FEFDC01CC52B2
:1011D000DF4F88839983AA83BB83C45DD04080E9B5
:1011E000C852DF4F8883C85DD040E6E0F3E0249129
:1011F000E0ECF2E08491882399F090E0880F991F49
:10120000FC01E45AFD4FA591B491FC01EA58FD4F51
:10121000859194918FB7F894EC91E22BEC938FBF6A
:1012200081E58CBD80E390E0C752DF4F99838883CE
:10123000C95DD040CE0187529F4F0E94830F8EE937
:1012400092E0FE013196A4E6B4E001900D92019780
:10125000E1F7CA54DD4F0FB6F894DEBF0FBECDBF25
:10126000DF91CF911F910F91FF90EF900895FC01B6
:10127000218530E02F5F3F4F2430310511F420E00D
:1012800030E0808590E02817390749F0DF01A20F90
:10129000B31F8C91DB018C93218781E0089580E05E
:1012A0000895362F90E0FC01E45EFC4F4491FC0170
:1012B000EA52FD4F2491FC01E057FD4F9491992390
:1012C00009F46CC0442309F455C050E0FA01319789
:1012D000E231F10508F04EC08827EE58FF4F8F4FDE
:1012E0000C94842D809180008F7707C080918000BE
:1012F0008F7D03C080918000877F809380003AC0FB
:1013000084B58F7702C084B58F7D84BD33C0809152
:10131000B0008F7703C08091B0008F7D8093B000C4
:1013200029C0809190008F7707C0809190008F7DB9
:1013300003C080919000877F809390001BC08091B4
:10134000A0008F7707C08091A0008F7D03C080919F
:10135000A000877F8093A0000DC0809120018F772F
:1013600007C0809120018F7D03C080912001877F7D
:1013700080932001E92FF0E0EE0FFF1FEA58FD4FA8
:10138000A591B4919FB7F894311104C08C91209528
:10139000282302C0EC912E2B2C939FBF08953FB7BA
:1013A000F8948091600490916104A0916204B091DE
:1013B000630426B5A89B05C02F3F19F00196A11D17
:1013C000B11D3FBFBA2FA92F982F8827820F911DDB
:1013D000A11DB11DBC01CD0142E0660F771F881F22
:1013E000991F4A95D1F708958F929F92AF92BF921D
:1013F000CF92DF92EF92FF926B017C010E94CF09A6
:101400004B015C01C114D104E104F104F1F00E942C
:10141000CF09DC01CB0188199909AA09BB09883ECB
:101420009340A105B10570F321E0C21AD108E1088B
:10143000F10888EE880E83E0981EA11CB11CC1142F
:10144000D104E104F10419F7DDCFFF90EF90DF90B4
:10145000CF90BF90AF909F908F9008952F923F9222
:101460004F925F926F927F928F929F92AF92BF92B4
:10147000CF92DF92EF92FF920F931F93CF93DF9360
:10148000CDB7DEB7CA54D3400FB6F894DEBF0FBE57
:10149000CDBF80912D0590912E050E940B070E94D3
:1014A000891964E670E080E090E00E94F409C25C73
:1014B000DC4F1882CE53D340C05CDC4F19821882B7
:1014C000C054D340412C512C3201212C312C00E04E
:1014D00010E0BE01635C7C4F809130059091310536
:1014E0000E943709882331F021E0C25CDC4F288359
:1014F000CE53D34083E290E00197F1F70E94CF09E9
:10150000DC01CB01CC5BDC4F288139814A815B81D6
:10151000C454D340821B930BA40BB50B803197426C
:10152000A105B10538F30E94B81B46E0409FC001F9
:10153000419F900D1124FC01EE0FFF1F21E030E0D0
:101540002C0F3D1FE20FF31F20916E0430916F04AA
:1015500031832083FC013196EE0FFF1F41E050E004
:101560004C0F5D1FE40FF51F209170043091710442
:1015700031832083FC013296EE0FFF1FE40FF51F2D
:10158000209172043091730431832083FC013396DF
:10159000EE0FFF1FE40FF51F2091760430917704C2
:1015A00031832083FC013496EE0FFF1FE40FF51FFB
:1015B000209178043091790431832083FC013596A1
:1015C000EE0FFF1FE40FF51F80917A0490917B04CA
:1015D000918380835EE02516310409F58EE493E063
:1015E0000E94D80F80917006909171060E94A91BED
:1015F00080917006909171060E94021C8091700685
:1016000090917106019690937106809370064097B1
:1016100021F41092710610927006212C312C0F5F6C
:101620001F4F0E94CF09CC5BDC4F688379838A838C
:101630009B83C454D340E2E1E09FC001E19F900D41
:101640001124092E000CAA0BBB0B4C015D01840C6C
:10165000951CA61CB71CF0E88F169104F1E0AF06AC
:10166000B10409F482C30032110509F09AC320E2E3
:1016700031E0AE014F5F5F4FC301B2010E94C11D57
:101680002FEF221A320AC25CDC4F3881CE53D3408E
:10169000311116C0CE5BDC4F8880C254D340C85B8A
:1016A000DC4F9880C854D340C75BDC4FA880C95436
:1016B000D340C65BDC4FB880CA54D34010E007C0AB
:1016C00041E0C25CDC4F4883CE53D34011E073014C
:1016D000620150E4C50E52E0D51EE11CF11C8FEFF3
:1016E000C816D80681E0E806F1044CF073016201E7
:1016F0009FEBC91A9DEFD90A91E0E90AF1088091A0
:101700002D0590912E050E940B0740E063E673E0E3
:1017100080912D0590912E050E949E1DC05CDC4F8E
:101720006881C054D34080912D0590912E050E9470
:10173000171EC05CDC4FE881F981C054D34031965C
:10174000C05CDC4FF983E883C054D340111119C049
:1017500000E010E0CE5BDC4F8882C254D340C85B0F
:10176000DC4F9882C854D340C75BDC4FA882C95471
:10177000D340C65BDC4FB882CA54D3402601370140
:10178000A8CE21E730E0CE5BDC4F39832883C254FA
:10179000D34000E010E040E250E0C25CDC4F5983EF
:1017A0004883CE53D34083E290E00197F1F70E9443
:1017B000CF09DC01CB01CC5BDC4F288139814A8128
:1017C0005B81C454D340821B930BA40BB50B8031B7
:1017D0009742A105B10538F30E94B81B46E0409F2F
:1017E000C001419F900D1124FC01EE0FFF1F21E06D
:1017F00030E02C0F3D1FE20FF31F20916E0430915B
:101800006F0431832083FC013196EE0FFF1F41E00E
:1018100050E04C0F5D1FE40FF51F209170043091D4
:10182000710431832083FC013296EE0FFF1FE40F19
:10183000F51F209172043091730431832083FC01E1
:101840003396EE0FFF1FE40FF51F209176043091C1
:10185000770431832083FC013496EE0FFF1FE40FE1
:10186000F51F209178043091790431832083FC01A5
:101870003596EE0FFF1FE40FF51F80917A049091CB
:101880007B04918380835EE02516310419F58DE693
:1018900093E00E94D80F80917006909171060E948B
:1018A000A91B80917006909171060E94021C809184
:1018B00070069091710601968031910529F0909300
:1018C00071068093700604C0109271061092700623
:1018D000212C312C0F5F1F4F0E94CF09CC5BDC4FB6
:1018E000688379838A839B83C454D3400032110573
:1018F00009F050C020E231E0AE014F5F5F4FC701F9
:10190000B6010E94C11D2601370180E4480E82E025
:10191000581E611C711C9FEF4916590691E069061B
:1019200071044CF026013701EFEB4E1AEDEF5E0A21
:10193000E1E06E0A7108FFEF2F1A3F0A80912D0532
:1019400090912E050E940B0740E063E673E08091C2
:101950002D0590912E050E949E1DC05CDC4F688174
:10196000C054D34080912D0590912E050E94171EE2
:10197000C05CDC4F28813981C054D3402F5F3F4F7A
:10198000C05CDC4F39832883C054D34073016201AB
:1019900000E010E0C25CDC4F48815981CE53D34057
:1019A00041505109C25CDC4F59834883CE53D34028
:1019B000452B09F0F8CECE5BDC4F88819981C2546B
:1019C000D3400197CE5BDC4F99838883C254D340C8
:1019D000892B09F0E0CEFE01EF5FFC4FCF01889626
:1019E0003F0111921192E817F907D9F708E010E0CA
:1019F00024E130E0A301C701B6010E94C11D98E2B5
:101A0000C90ED11CE11CF11C0150110989F77501A7
:101A10006401E0E8CE1AD108E1E0EE0AF108F7FE31
:101A200008C075016401F1E8CF1AD108FFEFEF0A91
:101A3000FF0A80912D0590912E050E940B0740E032
:101A400063E873E080912D0590912E050E949E1D04
:101A500062E370E080E090E00E94F40980912D053F
:101A600090912E050E940B0746015701412C512CE5
:101A70003201C501B4018114910422E0A206B1042F
:101A800020F06F5F7F4F8140910900E810E020E077
:101A900030E0AE014F5B5D4F0E94361D00E810E064
:101AA00020E030E0AE014F5B5D4FC301B2010E9408
:101AB0005C1330E8430E511C611C711C40E8840E1D
:101AC000911CA11CB11C50E845165EEF550651E073
:101AD0006506710471F6C701B601605871408E4FFA
:101AE0009F4F61157105E2E08E07910530F0C70147
:101AF000B6016F5771408109910900E410E020E0C0
:101B000030E0AE014F535D4F0E94361D00E410E0FF
:101B100020E030E0AE014F535D4F60E87EEF81E0A2
:101B200090E00E945C1380E4282E85E0382E91ED31
:101B3000492E9EEF592E66246394712C20ED822E3F
:101B40002EEF922EAA24A394B12C30ECC32E3EEF9C
:101B5000D32EEE24E394F12CC0923305D0923405B9
:101B6000E0923505F0923605F10160817181828144
:101B700093810E947014D701C6010496A11DB11D66
:101B80008093330590933405A0933505B0933605C3
:101B9000F10164817581868197810E947014D7015B
:101BA000C6010896A11DB11D80933305909334059D
:101BB000A0933505B0933605F10160857185828566
:101BC00093850E947014D701C6010C96A11DB11D0A
:101BD0008093330590933405A0933505B093360573
:101BE000F10184850E944C14D701C6010D96A11DF8
:101BF000B11D8093330590933405A0933505B093C0
:101C00003605F10185850E944C14D701C6010E9658
:101C1000A11DB11D8093330590933405A093350524
:101C2000B0933605F10186850E944C14D701C60198
:101C30000F96A11DB11D8093330590933405A09399
:101C40003505B0933605F10187850E944C148092CA
:101C5000330590923405A0923505B0923605F10116
:101C600080890E944C144092330550923405609252
:101C7000350570923605F10181899289A0E0B0E0C6
:101C8000C75CDC4F88839983AA83BB83C953D34045
:101C900041145104F2E06F06710458F404E010E0BE
:101CA00020E030E0AE01475C5C4FC301B2010E940E
:101CB0005C1323E1C20ED11CE11CF11CC092330560
:101CC000D0923405E0923505F092360533E1230ECB
:101CD000311C43E1840E911CA11CB11C53E1450E43
:101CE000511C611C711C80EFC8168FEFD80681E073
:101CF000E806F10409F030CFFE01E75DFC4FCF01AB
:101D00004096AF01119211928E179F07D9F700E10B
:101D100010E020E030E060EF7FEF81E090E00E9493
:101D20005C1364EF71E080E090E00E94F40982E9C6
:101D300093E00E94A414C65BDC4F0FB6F894DEBF9C
:101D40000FBECDBFDF91CF911F910F91FF90EF900C
:101D5000DF90CF90BF90AF909F908F907F906F90CB
:101D60005F904F903F902F9008950032110599F4A5
:101D700020E231E0AE014F5F5F4FC301B2010E942C
:101D8000C11D9FEF291A390AE1E0C25CDC4FE883EC
:101D9000CE53D3409BCCF1E0C25CDC4FF883CE53F2
:101DA000D340CE5BDC4F8880C254D340C85BDC4F4D
:101DB0009880C854D340C75BDC4FA880C954D34037
:101DC000C65BDC4FB880CA54D34073016201C2CCF9
:101DD0002FB7F89460915C0470915D0480915E046B
:101DE00090915F042FBF089584E98093BC0061E067
:101DF00070E080E090E00C94F4090F931F93CF9370
:101E00008A01662329F024EC2093BC00C0E504C0BD
:101E100024E82093BC00C8E50E946C06882399F052
:101E20008091B900887F90E02C2F30E082179307D3
:101E300051F48091BB00F80180839091BB0081E058
:101E4000911104C002C00E94F40E80E0CF911F9156
:101E50000F9108956093BB0024E82093BC000E947A
:101E60006C06882339F09091B900987F81E0903416
:101E700009F080E008951F93CF93DF93EC0114EAFB
:101E80001093BC00CE010E946C06882351F01B8287
:101E90001A829091B900987F81E0903169F080E0DA
:101EA0000BC02A813B812F5F3F4F3B832A832A301F
:101EB000310531F71B821A82DF91CF911F9108956E
:101EC0006093BB0024E82093BC000E946C0688232A
:101ED00029F09091B900987F983219F00E94F40E81
:101EE00080E008956093BB0024E82093BC000E942A
:101EF0006C06882339F09091B900987F81E0983181
:101F000009F080E00895CF93DF93EC010E94BF06B3
:101F100061E0CE010E94CA0660E4CE010E94CA06BA
:101F200061E08881DF91CF910C94510920917C046C
:101F300030917D0421303105B9F01CF4232B41F0A0
:101F4000089522303105E1F02330310529F108955B
:101F50008093C6008091C00086FFFCCF8091C000B6
:101F600080648093C00008958093CE008091C80063
:101F700086FFFCCF8091C80080648093C8000895DC
:101F80008093D6008091D00086FFFCCF8091D00056
:101F900080648093D0000895809336018091300151
:101FA00086FFFCCF809130018064809330010895DA
:101FB000CF93DF93EC018991882319F00E94960F4B
:101FC000FACFDF91CF9108952F923F924F925F9277
:101FD0006F927F928F929F92AF92BF92CF92DF9239
:101FE000EF92FF920F931F93CF93DF93CDB7DEB79E
:101FF0002B970FB6F894DEBF0FBECDBF4B015C012F
:102000001A016801790160913B0570E0CE010196EB
:102010000E94A606C114D104E104F10409F4E6C14A
:102020008114910422E0A206B10408F0DFC1D701B7
:10203000C601880D991DAA1DBB1D0197A240B105BF
:1020400048F0C12CD12C42E0E42EF12CC818D9085C
:10205000EA08FB08CE0101968114910441E0A40630
:10206000B10408F01EC1240135014C0C5D1C6E1C2E
:102070007F1C51E0451651046506710408F411C136
:102080000E948106811103C000E010E05BC06091F6
:102090003205CE0101960E94720F8823A9F3692DA3
:1020A0007727CE0101960E94600F882369F3682D7F
:1020B000CE0101960E94600F882331F3CE01019674
:1020C0000E943B0F882301F3609132056160CE01CD
:1020D00001960E942A0F8823B9F21D823F822E8228
:1020E00000E010E080E090E0A1E0B0E09C01AD01F4
:1020F000281939094A095B09288739874A875B8784
:10210000C801A0E0B0E0288539854A855B85821743
:102110009307A407B507A0F4AE014B5F5F4F61E0E2
:10212000CE0101960E94FD0E882309F41FC18D8106
:10213000EE81FF818193FF83EE830F5F1F4FE0CF1E
:102140000E94F40ECE0101960E948106882309F4B4
:102150004CC1609132056860CE0101960E94720FF9
:10216000882309F442C160E0CE0101960E94600F0D
:10217000882309F43AC160E0CE0101960E94600F05
:10218000882309F432C1CE0101960E943B0F8823B7
:1021900009F42BC1609132056960CE0101960E945D
:1021A0002A0F882309F421C11D82200E311E00E070
:1021B00010E0F1E06F1A7108C801A0E0B0E08415EA
:1021C0009505A605B70508F04CC00F5F1F4FC80165
:1021D000A0E0B0E0AE014B5F5F4F84159505A6050A
:1021E000B70510F461E001C060E0CE0101960E94E5
:1021F000FD0E882329F08D81F10181931F01DCCF31
:102200008FEF9FEFDC018093370590933805A09303
:102210003905B0933A058091330590913405A0912A
:102220003505B0913605119688199909AA09BB0997
:1022300081309105F2E0AF07B10510F0A170BB2726
:102240008093330590933405A0933505B0933605FC
:10225000C12CD12C7601E394C818D908EA08FB08F0
:10226000C8C00E94F40E689460F8409237055092FE
:1022700038056092390570923A0580913305909146
:102280003405A0913505B09136058C0D9D1DAE1D10
:10229000BF1D8130910522E0A207B10508F09AC068
:1022A0009BC00E948106882309F49FC0D501C40108
:1022B00088279927A170BB278D0193E0000F111F7C
:1022C0009A95E1F760913205602BCE0101960E944C
:1022D000720F882309F489C0692D7727CE010196F2
:1022E0000E94600F882309F480C0682DCE010196FA
:1022F0000E94600F882309F478C0CE0101960E94E5
:102300003B0F882309F471C0609132056160602B36
:10231000CE0101960E942A0F882309F466C01D820F
:10232000A12CB12CC501A0E0B0E08C159D05AE0537
:10233000BF0540F53FEFA31AB30AC501A0E0B0E026
:10234000AE014B5F5F4F8C159D05AE05BF0510F4C8
:1023500061E001C060E0CE0101960E94FD0E88237D
:1023600029F08D81F10181931F01DCCF8FEF9FEF69
:10237000DC018093370590933805A0933905B0931D
:102380003A0534C00E94F40E8091370590913805CB
:10239000A0913905B0913A058C0D9D1DAE1DBF1D54
:1023A0008093370590933805A0933905B0933A058B
:1023B0008091330590913405A0913505B091360593
:1023C0008C0D9D1DAE1DBF1D81309105F2E0AF0744
:1023D000B10510F0A170BB278093330590933405AD
:1023E000A0933505B093360504C005C0C12CD12C8F
:1023F0007601B601C7012B960FB6F894DEBF0FBE6B
:10240000CDBFDF91CF911F910F91FF90EF90DF90A3
:10241000CF90BF90AF909F908F907F906F905F9084
:102420004F903F902F9008950F931F93CF93DF937A
:102430001F92CDB7DEB7609133057091340580915E
:1024400035059091360501E010E020E030E0AE0166
:102450004F5F5F4F0E94E40F89810F90DF91CF9112
:102460001F910F9108950F931F93CF93DF9300D087
:102470001F92CDB7DEB7609133057091340580911E
:1024800035059091360504E010E020E030E0AE0123
:102490004F5F5F4F0E94E40F643071058105910525
:1024A00029F469817A818B819C8104C060E070E0AD
:1024B00080EC9FE70F900F900F900F90DF91CF91DE
:1024C0001F910F9108952F923F924F925F926F92BA
:1024D0007F928F929F92AF92BF92CF92DF92EF92B4
:1024E000FF920F931F93CF93DF9300D01F92CDB72E
:1024F000DEB74B015C011A016801790160913B056F
:1025000070E0CE0101960E94A606D701C601019790
:10251000A109B10980389105A105B10508F0B1C044
:10252000240135014424552421E06222772423012B
:1025300066247724CE0101960E948106882309F43F
:1025400073C060913205C20123E0880F991F2A955C
:10255000E1F7682BCE0101960E94720F882309F4DF
:1025600063C0692D7727CE0101960E94600F8823F2
:1025700009F45AC0682DCE0101960E94600F88238D
:1025800009F452C04101C40182199309A0E0B0E0EE
:102590008C159D05AE05BF05A8F4F40161914F01AE
:1025A000CE0101960E94600F8111EDCF8FEF9FEF5A
:1025B000DC018093370590933805A0933905B093DB
:1025C0003A055FC00E94F40E80913705909138055E
:1025D000A0913905B0913A058C0D9D1DAE1DBF1D12
:1025E0008093370590933805A0933905B0933A0549
:1025F0008091330590913405A0913505B091360551
:102600008C0D9D1DAE1DBF1D81309105F2E0AF0701
:10261000B10510F0A170BB2780933305909334056A
:10262000A0933505B09336050E94E80E4B015C017E
:10263000CE0101960E948106811103C0B601C70137
:1026400024C0440C440C440C609132056429CE0132
:1026500001960E94720F8111F1CF0E94E80EDC01F9
:10266000CB0188199909AA09BB09893E9340A105A4
:10267000B10538F461E070E080E090E00E94F40978
:10268000E3CF60E070E080E090E00F900F900F905B
:102690000F90DF91CF911F910F91FF90EF90DF90FE
:1026A000CF90BF90AF909F908F907F906F905F90F2
:1026B0004F903F902F9008952F923F924F925F92AC
:1026C0006F927F928F929F92AF92BF92CF92DF9242
:1026D000EF92FF920F931F93CF93DF93CDB7DEB7A7
:1026E0002E970FB6F894DEBF0FBECDBF5E874D8725
:1026F00068017901060F171F281F391F01301105C6
:102700002240310548F0C12CD12C02E0E02EF12C02
:10271000C61AD70AE80AF90A9B01AC0144275527D3
:1027200029833A834B835C838B019C01002711270B
:10273000217033274901AA24BB248D829E82AF8257
:10274000B8862B013C0121E0421A5108610871084A
:102750004C0C5D1C6E1C7F1C4424552431E063220C
:10276000772423016624772489809A80AB80BC80FB
:10277000B7E0B694A79497948794BA95D1F78986D1
:102780009A86AB86BC86E985FA859B012150310982
:102790002C0D3D1D1901220C232C221C33083194D1
:1027A0009D8094100AC0E215F30539F49701860163
:1027B0004D855E850E94631256C029853A852F5F3C
:1027C0003F4F279522272795A9802A192987022F6D
:1027D00010E020E030E04D815E816F817885DA0184
:1027E0009927882789809A80AB80BC80882A992A7B
:1027F000AA2ABB2AC501B4014D855E850E946312D9
:102800009984961621F07727882799272CC09C2C2D
:10281000A9849A18092D10E020E030E0B12C4D85F4
:102820005E854A0D5B1D320155244424C1019695F5
:10283000982F882797958795A0E0B0E0BC01CD013F
:1028400064297529862997290E946312961649F0F2
:102850009501260F311DB901072E000C880B990B2D
:1028600002C0C701B6012E960FB6F894DEBF0FBEA8
:10287000CDBFDF91CF911F910F91FF90EF90DF902F
:10288000CF90BF90AF909F908F907F906F905F9010
:102890004F903F902F9008950F931F93282F609192
:1028A0003305709134058091350590913605611599
:1028B000710532E08307910570F4422F50E001E08A
:1028C00010E020E030E00E945C1321E061307105EF
:1028D0008105910509F020E0822F1F910F91089545
:1028E0000F931F93CF93DF9300D01F92CDB7DEB726
:1028F00069837A838B839C8360913305709134055F
:1029000080913505909136056115710522E08207A9
:10291000910578F404E010E020E030E0AE014F5F74
:102920005F4F0E945C1321E06430710581059105C1
:1029300009F020E0822F0F900F900F900F90DF9101
:10294000CF911F910F9108950E94D80F8AE00C94A7
:10295000960FCF93DF9300D01F921F92CDB7DEB7B3
:10296000282F64E60E940F2D30E3380F398344E6A8
:10297000849F20191124822F6AE00E940F2D90E37A
:10298000980F9A83205D4AE0849F201911242B839D
:102990001C82303319F0CE01019607C0903319F034
:1029A000CE01029602C0CE0103960E94D80F0F906E
:1029B0000F900F900F900F90DF91CF9108952F926D
:1029C0003F924F925F926F927F928F929F92AF92BF
:1029D000BF92CF92DF92EF92FF920F931F93CF930C
:1029E000DF936B017C0197FF03C08DE20E94960F7D
:1029F000F7FE08C0F094E094D094C094C11CD11CA0
:102A0000E11CF11CC114D104E104F104A9F480E338
:102A1000DF91CF911F910F91FF90EF90DF90CF90BA
:102A2000BF90AF909F908F907F906F905F904F90EE
:102A30003F902F900C94960F85E0382E212CC0E10A
:102A4000D7E20AE010E02E010D2E000C6608770890
:102A5000C701B601A30192010E94652D49015A01E7
:102A6000232B242B252B11F4222031F080E3880D19
:102A70000E94960F22242394A3019201C501B40160
:102A80000E94FF2CC61AD70AE80AF90ACE01B8013B
:102A90000E942F2DEB013A943110D5CFDF91CF91C9
:102AA0001F910F91FF90EF90DF90CF90BF90AF906C
:102AB0009F908F907F906F905F904F903F902F905E
:102AC00008954F925F926F927F928F929F92AF92F2
:102AD000BF92CF92DF92EF92FF92CF93DF9300D01D
:102AE00000D0CDB7DEB76B017C0120E030E0A9015A
:102AF0000E94222E87FF03C08DE20E94960FD7010D
:102B0000C601BF7789839A83AB83BC83BC01CD01A7
:102B10000E94992E4B015C010E94DF148CE20E94FE
:102B2000960FC12CD12C7601A1E0B0E0BE83AD831D
:102B30002D813E81B901330F880B990B0E94D12E54
:102B40009B01AC0160E070E080E291E40E94EE2F16
:102B50002B013C01AAE0B0E0A70196010E94A22D42
:102B60006B017C01C501B4010E94D12E9B01AC0117
:102B700069817A818B819C810E94B52DA30192018C
:102B80000E94812F2B013C01C701B6010E94D12E6A
:102B90009B01AC01C301B2010E94B52D0E94992E88
:102BA000C60ED71EE81EF91E0E94DF148D819E817D
:102BB00001969E838D83079709F0BACF26960FB6AC
:102BC000F894DEBF0FBECDBFDF91CF91FF90EF90A5
:102BD000DF90CF90BF90AF909F908F907F906F903D
:102BE0005F904F9008950F931F93CF93DF93982F8B
:102BF00040911D0550911E0560911F0570912005A3
:102C00004F5F5F4F6F4F7F4F40931D0550931E05E1
:102C100060931F0570932005843209F45BC2E09134
:102C20001705853234F48A3071F08D3009F060C2B6
:102C30000AC08A3241F08C3209F05AC280910405F0
:102C4000892780930405092FEF3008F032C2F0E0A5
:102C5000EA5FFA4F108280910505882309F41DC1AF
:102C6000209106053FEB320F822F022E000C990BAC
:102C7000363010F4C79707C02156263018F4875510
:102C8000910901C0C097282F2295207F3091070518
:102C90004FEB430F832F032E000C990B463010F49B
:102CA000C79707C03156363018F48755910901C0CF
:102CB000C097820F909104058913DBC0809129058C
:102CC00090912A05A0912B05B0912C050196A11D8C
:102CD000B11D8093290590932A05A0932B05B093ED
:102CE0002C0580911805882399F0809121059091F9
:102CF0002205A0912305B09124050196A11DB11DC7
:102D00008093210590932205A0932305B093240579
:102D1000109115051123B9F1113009F084C082EA30
:102D200094E00E94F40280EB94E00E94F40280910F
:102D30001805882309F477C087E0E0E9F4E0A2E809
:102D4000B4E001900D928A95E1F787E0E7E9F4E0BD
:102D5000A9E8B4E001900D928A95E1F70E94E80E8F
:102D600060939E0470939F048093A0049093A104A9
:102D700010938104109380048EEB94E00E94DD0296
:102D80008CEC94E04EC080EB94E00E94F4028091C1
:102D90001805882329F187E0E0E9F4E0A2E8B4E02F
:102DA00001900D928A95E1F787E0E7E9F4E0A9E860
:102DB000B4E001900D928A95E1F70E94E80E6093CD
:102DC0009E0470939F048093A0049093A10481E0DB
:102DD00080938104809380048AED94E00E94DD0258
:102DE0008091F2049091F304A091F404B091F50461
:102DF0008093EE049093EF04A093F004B093F10459
:102E00000E94E80E6093EA047093EB048093EC0454
:102E10009093ED0481E08093E9048093E80486EFC9
:102E200094E00E94DD02C0911B05D0911C0511E0C9
:102E3000209709F440C1E0911B05F0911C0566A1A3
:102E400077A18EA19FA10E94C031892B09F033C1C7
:102E5000BE01CE0140960E94C9310E94E80E68A3CF
:102E600079A38AA39BA31DA31CA30AA4DBA5C02D41
:102E7000DFCF8091250590912605A0912705B0917F
:102E800028050196A11DB11D809325059093260567
:102E9000A0932705B09328050CC1809116058111D8
:102EA00042C069EA73E086E095E00E94C031892B58
:102EB00041F06FEA73E086E095E00E94C031892B13
:102EC00011F481E014C065EB73E086E095E00E94A8
:102ED000C031892B41F06BEB73E086E095E00E94F6
:102EE000C031892B19F41092150503C082E080933C
:102EF00015058091190590911A0590931C058093F2
:102F00001B05C0911B05D0911C05209709F4D1C069
:102F100066E075E08EA19FA10E94C03197FFC3C0FB
:102F20008AA59BA5EACFE0911505E23009F493C08C
:102F300090910605992309F48EC020E2E29FF001EA
:102F40001124E82B3197E932F10508F084C0882775
:102F5000EC57FF4F8F4F0C94842D86E095E00E9434
:102F600093036093B6047093B7048093B80490936E
:102F7000B90471C081E0913409F043C043C060E9F5
:102F800074E009C081E0933509F080E080939604F5
:102F900062C067E974E086E095E00E940B035BC0C5
:102FA00081E0973509F080E080939D0454C086E06D
:102FB00095E00E9493036093C8047093C9048093C2
:102FC000CA049093CB0447C086E095E00E94930327
:102FD0006093D6047093D7048093D8049093D90457
:102FE0003AC086E095E00E94C32C6093A8047093D9
:102FF000A9048093AA049093AB042DC081E091337F
:103000000CF480E08093180526C086E095E00E94CD
:10301000C32C6093F2047093F3048093F4049093B0
:10302000F50419C086E095E00E94930360930005C3
:103030007093010580930205909303050CC086E010
:1030400095E00E9493036093E4047093E5048093F9
:10305000E6049093E704C0911B05D0911C052097CE
:1030600041F1E0911B05F0911C0566A177A18EA1AD
:103070009FA10E94C031892BE1F428A539A5809138
:10308000160590E082179307A4F02817390739F442
:1030900040E150E066E075E0CE010E94D0310AA424
:1030A000DBA5C02DDCCF892B21F010921C051092DE
:1030B0001B0580E001C081E0909116059F5F909311
:1030C00016051092170591E00A3209F090E09093EE
:1030D000050523C0109217051092160510920405DD
:1030E00082E080931505109205051092180514C012
:1030F000EE3040F481E08E0F80931705F0E0EA5F38
:10310000FA4F908380910505811106C02091040536
:1031100092279093040501C080E0DF91CF911F9129
:103120000F91089580917E0490917F0481309105E4
:1031300089F01CF4892B39F022C08230910589F086
:103140000397B1F01CC08091C00087FFFCCF809135
:10315000C60008958091C80087FFFCCF8091CE0003
:1031600008958091D00087FFFCCF8091D60008950C
:103170008091300187FFFCCF80913601089580E077
:10318000089580917E0490917F048130910571F0C3
:103190002CF4892BA1F48091C0000DC082309105E0
:1031A00041F0039761F48091300105C08091C8001F
:1031B00002C08091D000881F8827881F0895089535
:1031C000CF92DF92FF920F931F93CF93DF9300D0A4
:1031D0001F92CDB7DEB7D82EF92E6091640470919E
:1031E0006504CE0101960E94A606CE0101960E94BA
:1031F00081068823B1F160EDCE0101960E94720F25
:10320000882379F16BE3CE0101960E94600F882339
:1032100041F1CE0101960E943B0F882311F161ED2F
:10322000CE0101960E942A0F8823D9F00D2D1F2D63
:10323000F12C68018DE0C80ED11C8DE0F81619F054
:10324000A80161E002C0A60160E0CE0101960E94E3
:10325000FD0EF3940F5F1F4F8EE0F812EECF0E9429
:10326000F40E0F900F900F900F90DF91CF911F9160
:103270000F91FF90DF90CF900895FF920F931F93CF
:10328000CF93DF9300D01F92CDB7DEB7F82E8B011E
:103290006091640470916504CE0101960E94A606B7
:1032A000CE0101960E948106811102C010E026C065
:1032B00060EDCE0101960E94720F8823B9F36F2D45
:1032C000CE0101960E94600F882381F3CE01019602
:1032D0000E943B0F882351F361EDCE0101960E94BD
:1032E0002A0F882319F3A80160E0CE0101960E94FD
:1032F000FD0E182F8823D1F20E94F40E812F0F901B
:103300000F900F900F90DF91CF911F910F91FF9031
:1033100008954F925F926F927F928F929F92AF9299
:10332000BF92CF92DF92EF92FF920F931F93CF93B2
:10333000DF93CDB7DEB76F970FB6F894DEBF0FBE41
:10334000CDBF19828E010F5F1F4FB80185E70E9424
:103350003D198981833709F0D8C181EC93E00E943F
:10336000A41440E86BE684E694E00E94D00664E68C
:1033700070E080E090E00E94F40941E06BE684E6B2
:1033800094E00E94D00668EC70E080E090E00E943B
:10339000F40940E06BE184E694E00E94D00640E04E
:1033A0006CE184E694E00E94D00680E090E0AAEF11
:1033B000BBE38093660490936704A0936804B09382
:1033C000690480E090E0A0E8B8E380936A049093F9
:1033D0006B04A0936C04B0936D0441E06AE184E651
:1033E00094E00E94D00640E069E184E694E00E9407
:1033F000D00641E068E384E694E00E94D0065E01D6
:103400002FE0A20EB11CB5018AE30E943D19812C68
:1034100099249394188E198E1A8E1B8E1C8A1D8ADD
:103420001E8A1F8A188A198A1A8A1B8A1C8E1D8E68
:103430001E8E1F8E412C512C3201C12CD12C7601B5
:10344000B5018AE30E943D198F8580FD07C061E0C8
:1034500070E080E090E00E94F409F2CFC8010E9481
:10346000E01889819A81982789279827092E000CCE
:10347000AA0BBB0BC80ED91EEA1EFB1E8B819C81BA
:10348000982789279827092E000CAA0BBB0B480EFA
:10349000591E6A1E7B1E8D819E8198278927982739
:1034A000092E000CAA0BBB0B2C8D3D8D4E8D5F8D14
:1034B000280F391F4A1F5B1F2C8F3D8F4E8F5F8F48
:1034C00089859A85982789279827092E000CAA0BA9
:1034D000BB0B288939894A895B89280F391F4A1F04
:1034E0005B1F288B398B4A8B5B8B8B859C85982740
:1034F00089279827092E000CAA0BBB0B2C893D8924
:103500004E895F89280F391F4A1F5B1F2C8B3D8B0B
:103510004E8B5F8B8D859E85982789279827092E4E
:10352000000CAA0BBB0B288D398D4A8D5B8D280FA3
:10353000391F4A1F5B1F288F398F4A8F5B8F31E0FD
:10354000831A910809F07CCFBB27F7FCBA95AF2D01
:103550009E2D8D2D9093DF068093DE06BB2477FC95
:10356000BA94A72C962C852C9092E1068092E006C6
:103570002C8D3D8D4E8D5F8DC32ED42EE52EFF24D8
:10358000E7FCFA94D092E306C092E20628893989D2
:103590004A895B89232F342F452F552747FD5A959C
:1035A000288B398B4A8B5B8B3093E5062093E4069E
:1035B0002C893D894E895F89232F342F452F55272C
:1035C00047FD5A952C8B3D8B4E8B5F8B3093E706D6
:1035D0002093E606288D398D4A8D5B8D232F342F5D
:1035E000452F552747FD5A95288F398F4A8F5B8F76
:1035F0003093E9062093E80640906A0450906B04EB
:1036000060906C0470906D04BC01990F880B990B4D
:103610000E94D12EA30192010E94812F6093EA069D
:103620007093EB068093EC069093ED06B401990C31
:10363000880B990B0E94D12EA30192010E94812F29
:103640006093EE067093EF068093F0069093F10678
:10365000B601DD0C880B990B0E94D12EA3019201BB
:103660000E94812F6093F2067093F3068093F40614
:103670009093F506C0906604D0906704E0906804CB
:10368000F090690448895989BA01550F880B990B44
:103690000E94D12EA70196010E94812F6093F60609
:1036A0007093F7068093F8069093F9062C893D896C
:1036B000B901330F880B990B0E94D12EA7019601F7
:1036C0000E94812F6093FA067093FB068093FC069C
:1036D0009093FD06488D598DBA01550F880B990BB3
:1036E0000E94D12EA70196010E94812F6093FE06B1
:1036F0007093FF06809300079093010760ED77E0D9
:1037000080E090E00E94F4090DC08FEC93E00E94ED
:10371000A414B80180913005909131050E943709B9
:103720008823B9F36F960FB6F894DEBF0FBECDBFF6
:10373000DF91CF911F910F91FF90EF90DF90CF908D
:10374000BF90AF909F908F907F906F905F904F90C1
:103750000895BC01990F880B990B0E94DF148AE031
:103760000C94960FBC01990F880B990B0C94DF14E5
:10377000CF93DF93CDB7DEB72E970FB6F894DEBFA9
:103780000FBECDBFCE0101960E94E018E4E6F4E042
:1037900089819A81982789279827938782878B81A7
:1037A0009C81982789279827958784878D819E817A
:1037B000982789279827978786878F8198859827C4
:1037C00089279827918B808B89859A8598278927C7
:1037D0009827938B828B8B859C85982789279827A0
:1037E000958B848B8D859E85982789279827978B25
:1037F000868B2E960FB6F894DEBF0FBECDBFDF913D
:10380000CF9108954F925F926F927F928F929F9285
:10381000AF92BF92CF92DF92EF92FF920F931F93DE
:10382000CF93DF938C010E94C1188823E1F30E949B
:1038300092180E94F3158823B1F38091B004882375
:1038400091F380918004882371F38091BE048823D2
:1038500051F38091A204882331F310928104609186
:1038600084047091850480918604909187040E945D
:10387000CF2E28E23BE64EE65EE40E94272E6B0147
:103880007C01609182047091830480E090E00E944A
:10389000CF2E9B01AC01C701B6010E94B62D20912D
:1038A0008804DC01CB012111B05823E1209FF001F5
:1038B000219FF00D1124E05CFA4F80839183A28355
:1038C000B38360918B0470918C0480918D049091EE
:1038D0008E040E94CF2E28E23BE64EE65EE40E9474
:1038E000272E6B017C016091890470918A0480E02D
:1038F00090E00E94CF2E9B01AC01C701B6010E944F
:10390000B62D20918F04DC01CB012111B05823E1A9
:10391000209FE001219FD00D1124CC59DB4FFE01E7
:10392000E052FF4F80839183A283B3831092BF0440
:103930008E010C511F4F6091C4047091C504809199
:10394000C6049091C7040E94D12E26E53EE04DEEBC
:103950005FE30E94812F20E030E048EC52E40E94B7
:10396000272EF80160837183828393831092B104C0
:103970008090B2049090B304A090B404B090B504C9
:103980000C5F1F4FC501B40120E432E44FE050E06A
:103990000E94432DF80120830F5F1F4F80E1482EC6
:1039A00087E2582E612C712CC501B401A30192014C
:1039B0000E94432D94E6C92ED12CE12CF12CCA0192
:1039C000B901A70196010E94432DF80160830F5FA2
:1039D0001F4FC501B401A70196010E94432DCA01E2
:1039E000B901A70196010E94432DF801608310924E
:1039F000A3048090A4049090A504A090A604B09085
:103A0000A7040F5F1F4FC501B401A30192010E94DB
:103A1000432DF80120830F5F1F4FC501B401A7019B
:103A200096010E94432D4B015C01CA01B901A70117
:103A300096010E94432DF8016083C351DF4FF0E3EC
:103A40008F1AF8EF9F0A99828882DF91CF911F9198
:103A50000F91FF90EF90DF90CF90BF90AF909F902D
:103A60008F907F906F905F904F9008956F927F92AC
:103A70008F929F92AF92BF92CF92DF92EF92FF927E
:103A80000F931F93CF93DF934B015C013A016801C1
:103A900079018CE395E00E94830F8CE395E00E940E
:103AA000BF0663E08CE395E00E94CA06B501882753
:103AB00099278CE395E00E94CA0699278B2D7A2DD1
:103AC000692D8CE395E00E94CA06682D8CE395E091
:103AD0000E94CA06E301812C912C5401C814D90418
:103AE000EA04FB04C1F060E08CE395E00E94CA06A2
:103AF000182F60E08CE395E00E94CA06212F30E089
:103B0000322F2227282B299339938FEF881A980A6E
:103B1000A80AB80AE3CF61E080913C05DF91CF911C
:103B20001F910F91FF90EF90DF90CF90BF90AF90DB
:103B30009F908F907F906F900C945109442339F09F
:103B4000413051F4FC01EF5AFF4F408305C021E0A2
:103B5000FC01E05BFF4F208350E024E1429F800D99
:103B6000911D1124252F30E0FB01E20FF31F40814E
:103B7000442331F0FC01E20FF31F40835F5FF2CF7B
:103B800008958F929F92AF92BF92CF92DF92EF9261
:103B9000FF920F931F93CF93DF934B015C018A0138
:103BA00069018CE395E00E94830F8CE395E00E940D
:103BB000BF0662E08CE395E00E94CA06B501882743
:103BC00099278CE395E00E94CA0699278B2D7A2DC0
:103BD000692D8CE395E00E94CA06682D8CE395E080
:103BE0000E94CA06E80100E010E00C151D0571F006
:103BF00069818CE395E00E94CA06688122968CE375
:103C000095E00E94CA060F5F1F4FEFCF61E08091E1
:103C10003C05DF91CF911F910F91FF90EF90DF90C6
:103C2000CF90BF90AF909F908F900C945109AF921E
:103C3000BF92CF92DF92EF92FF920F931F93CF9399
:103C4000DF9300D01F92CDB7DEB78C01462FFE0167
:103C500031966E0184E0C80ED11C24E630E07F016D
:103C60008AE0A82EB12C842F90E0B9010E941B2D70
:103C700080E3860F8193629F40191124C901B50129
:103C80000E941B2D9B01CE16DF0669F71C8240E0C7
:103C9000B701C8010E949E1D0F900F900F900F90CA
:103CA000DF91CF911F910F91FF90EF90DF90CF9018
:103CB000BF90AF9008951F920F920FB60F921124EC
:103CC0002F933F938F939F93AF93BF9380915C0407
:103CD00090915D04A0915E04B0915F043091020761
:103CE00023E0230F2D3720F40196A11DB11D05C03F
:103CF00026E8230F0296A11DB11D20930207809391
:103D00005C0490935D04A0935E04B0935F04809183
:103D1000600490916104A0916204B09163040196E3
:103D2000A11DB11D8093600490936104A09362046F
:103D3000B0936304BF91AF919F918F913F912F9169
:103D40000F900FBE0F901F901895CF93DF93CDB7B4
:103D5000DEB7C656D1090FB6F894DEBF0FBECDBF91
:103D6000789484B5826084BD84B5816084BD85B556
:103D7000826085BD85B5816085BD80916E00816062
:103D800080936E0010928100809181008260809308
:103D9000810080918100816080938100809180000A
:103DA0008160809380008091B10084608093B10035
:103DB0008091B00081608093B0008091910082601A
:103DC0008093910080919100816080939100809117
:103DD00090008160809390008091A1008260809328
:103DE000A1008091A10081608093A1008091A0003A
:103DF00081608093A00080912101826080932101E5
:103E00008091210181608093210180912001816056
:103E10008093200180917A00846080937A00809161
:103E20007A00826080937A0080917A00816080932A
:103E30007A0080917A00806880937A001092C100A5
:103E40000E94230780910002882371F185EF93E09F
:103E50000E940B078091480490914904823091059B
:103E6000B1F044F4009779F00197E1F440E068E1A3
:103E700072E014C08330910571F0049799F440E02A
:103E800061E472E00BC040E06DE072E007C040E02A
:103E900063E272E003C040E060E372E085EF93E02C
:103EA0000E949E1D1092000267E474E08BEE93E086
:103EB0000E943709882311F40C94EB2B809147045E
:103EC000833051F0853011F40C94DE2B813011F0E9
:103ED0000C94EB2B0C94CE2B8091480490914904C8
:103EE0008230910509F44EC2ACF40097B9F1019704
:103EF00011F00C94DA2B85EF93E00E940B0740E061
:103F000063E872E085EF93E00E949E1D6AE0A62EB2
:103F1000B12CA2C08330910509F438C2049711F086
:103F20000C94DA2B85EF93E00E940B0740E06AEED9
:103F300072E085EF93E00E949E1D80912D05909187
:103F40002E050E940B0727961CAE1DAE1EAE1FAE9F
:103F5000279783E2282E312C0C94E82A85EF93E0F2
:103F60000E940B0740E06EE472E085EF93E00E9450
:103F70009E1D0E948919BE016F5F7F4F80913005A1
:103F8000909131050E94370981110C94DA2B0E941F
:103F9000B81B8EE592E00E94D80F80916E0490913C
:103FA0006F040E94B21B83E692E00E94D80F86E65F
:103FB00092E00E94D80F80917004909171040E9449
:103FC000B21B83E692E00E94D80F8BE692E00E943B
:103FD000D80F80917204909173040E94B21B80E705
:103FE00092E00E94D80F84E792E00E94D80F80915F
:103FF0007604909177040E94B21B83E692E00E94BF
:10400000D80F89E792E00E94D80F809178049091B0
:1040100079040E94B21B83E692E00E94D80F8EE7DB
:1040200092E00E94D80F80917A0490917B040E94C4
:10403000A91BA1CF0E9492180E94F315811119C0EB
:104040000E94C1188111F6CF0E94E80E69387341B1
:104050008105910508F072C1BE016F5F7F4F8091AD
:104060003005909131050E943709882349F30C945B
:10407000DA2B80918004882309F459C18091A2042D
:10408000882309F454C18091B004882309F44FC1F6
:104090008091BE04882309F44AC18AED92E00E940F
:1040A000D80F1092810460918404709185048091EE
:1040B0008604909187040E94CF2E28E23BE64EE6CC
:1040C0005EE40E94272E6B017C0160918204709156
:1040D000830480E090E00E94CF2E9B01AC01C701D9
:1040E000B6010E94B62D20918804211190580E949B
:1040F000611583E992E00E94D80F109281046091CB
:104100008B0470918C0480918D0490918E040E9498
:10411000CF2E28E23BE64EE65EE40E94272E6B019E
:104120007C016091890470918A0480E090E00E9493
:10413000CF2E9B01AC01C701B6010E94B62D209184
:104140008F04211190580E9461158AE00E94960FF9
:1041500086E992E00E94D80F1092BF046091C404D7
:104160007091C5048091C6049091C7040E94D12E1D
:1041700026E53EE04DEE5FE30E94812F20E030E037
:1041800048EC52E40E94272E0E94611583EA92E0D7
:104190000E94A41488EA92E00E94D80F1092A3040F
:1041A0006091A4047091A5048091A6049091A70445
:1041B00020E137E240E050E00E94432D822F0E9430
:1041C000A9148FEA92E00E94D80F1092A304609184
:1041D000A4047091A5048091A6049091A70424E6FC
:1041E00030E040E050E00E94432DCA01B90124E6CE
:1041F00030E040E050E00E94432D862F0E94A91439
:104200008FEA92E00E94D80F1092A3046091A40458
:104210007091A5048091A6049091A70424E630E053
:1042200040E050E00E94432D8B010053184F45E0C1
:10423000942E20E050E1E52E57E2F52EC801B7019B
:104240000E941B2D6B016115710511F00C94F52B6B
:1042500021110C94F52BCE9CC001CF9C900DDE9CBF
:10426000900D1124081B190BC701B5010E942F2DB9
:104270007B019A949110E2CF8AE00E94960F81EB25
:1042800092E00E94D80F1092B1046091B204709134
:10429000B3048091B4049091B50420E432E44FE07B
:1042A00050E00E94432D822F0E94A9148BE693E0D8
:1042B0000E94D80F1092B1046091B2047091B304BF
:1042C0008091B4049091B50420E137E240E050E0E1
:1042D0000E94432DCA01B90124E630E040E050E0DD
:1042E0000E94432D862F0E94A9148BE693E00E9422
:1042F000D80F1092B1046091B2047091B304809110
:10430000B4049091B50424E630E040E050E00E940F
:10431000432DCA01B90124E630E040E050E00E949C
:10432000432D862F0E94A9148AE00E94960F64EF05
:1043300071E080E090E00E94F40982CE80911D053A
:1043400090911E05A0911F05B09120050A97A10527
:10435000B10508F081CE89EF92E00E94A41483E1B8
:1043600093E00E94A41489E293E00E94A4148FECCD
:1043700092E00E94A41460ED77E080E090E00E945B
:10438000F4096ACE0E942E0A0C94DA2B85EF93E092
:104390000E940B0740E068EB72E085EF93E00E941B
:1043A0009E1D41E064EC72E085EF93E00E949E1D4B
:1043B000812C912C54017E0133E1E30EF11C02E1CA
:1043C00010E020E030E0AE014F5F5F4FC501B40167
:1043D0000E94E40F8E010F5F1F4FD80111968C9140
:1043E000119790E0982F88272C91822B0E94B21B66
:1043F0008EEC92E00E94D80F0E5F1F4FE016F10680
:1044000061F78FEC92E00E94A414B2E18B0E911C34
:10441000A11CB11CE0EC8E16EEEF9E06E1E0AE06AC
:10442000B10469F680ED92E00E94A41480923305F5
:1044300090923405A0923505B092360591ED492E43
:104440009EEF592E66246394712C20ED3EEF41E0DF
:1044500050E02B8F3C8F4D8F5E8F20EC822E2EEF05
:10446000922EAA24A394B12C0E9433126BAB7CAB86
:104470008DAB9EABD501C4010496A11DB11D8093E7
:10448000330590933405A0933505B09336050E940B
:1044900033126FAB78AF89AF9AAFD501C4010896DC
:1044A000A11DB11D8093330590933405A09335056C
:1044B000B09336050E94331223966CAF7DAF8EAF5A
:1044C0009FAF2397D501C4010C96A11DB11D809308
:1044D000330590933405A0933505B09336050E94BB
:1044E00014128F8BD501C4010D96A11DB11D8093AF
:1044F000330590933405A0933505B09336050E949B
:1045000014128F8FD501C4010E96A11DB11D809389
:10451000330590933405A0933505B09336050E947A
:1045200014128BA3D501C4010F96A11DB11D809358
:10453000330590933405A0933505B09336050E945A
:1045400014128FA78B8D9C8DAD8DBE8D80933305FE
:1045500090933405A0933505B09336050E9414124C
:10456000382E409233055092340560923505709292
:10457000360504E010E020E030E0AE014D5E5F4F14
:10458000C301B2010E94E40F6430710581059105F9
:1045900029F48B899C89AD89BE8903C080E090E0B5
:1045A000DC01E3E18E0E911CA11CB11C809233054D
:1045B00090923405A0923505B0923605FC01843600
:1045C00091051CF0E25BF74001C07E96E093EA03A0
:1045D0003092E9032FA52093E8033F893093E60347
:1045E0004F8D4093E5035BA15093E403AE2FB0E001
:1045F00020E833E341EE51E00E94A22D6B017C01E3
:1046000002EB17E09F013327C801825B97408217B6
:10461000930704F12E54384FC90164E670E00E94FC
:104620002F2D25969FAF8EAF2597C90160E971E0C8
:104630000E942F2D29969FAF8EAF299701E012E09F
:10464000E1E0F0E0232C312CC9018370992798A771
:104650008FA334C0C80183709927892BA9F4C8019E
:1046600064E670E00E942F2D892B39F4C80160E9BF
:1046700071E00E942F2D892B39F490E8C90E91E545
:10468000D91E91E0E91EF11C0F5F1F4FBDCFE23034
:10469000F105F1F4AFA1B8A5AB2BD1F425962EAD61
:1046A0003FAD2597232B71F050E8C50E5BE3D51E77
:1046B00056E2E51EF11C31960F5F1F4FE215F30520
:1046C00034F315C029964EAD5FAD2997452B61F3A4
:1046D000D8018C91A82FB0E020E831E541E050E00E
:1046E0000E94A22DC60ED71EE81EF91EE4CFBF8978
:1046F0002B2F30E0A0E1BEE00E948C2D6F8B788FD5
:10470000898F9A8FEF8D2E2F30E0ACE3B0E00E94BE
:104710008C2D2F89388D498D5A8D260F371F481FB4
:10472000591F6BA1260F311D411D511D2F8B388F35
:10473000498F5A8F8FA5A82FB0E0119720E831E557
:1047400041E050E00E94AD2D2F89388D498D5A8D62
:10475000260F371F481F591FCA01B9016C0D7D1D57
:104760008E1D9F1D0E94FC04A0913E05B0913F0547
:1047700020E13EE00E949B2D0091E0031091E103B7
:104780002091E2033091E303DC01CB01800F911F04
:10479000A21FB31F8093E0039093E103A093E20371
:1047A000B093E3038AED92E00E94D80F6BA97CA935
:1047B0008DA99EA90E94611584E692E00E94D80FFF
:1047C0006FA978AD89AD9AAD0E94611584E692E03B
:1047D0000E94A41486E992E00E94D80F23966CAD43
:1047E0007DAD8EAD9FAD23970E9461158AE00E943A
:1047F000960F88EA92E00E94D80F0E9423050E943B
:1048000069058091E80390E00E94B21B8FEA92E074
:104810000E94D80F0E9423050E9469058091E90338
:1048200090E00E94B21B8FEA92E00E94D80F0E9493
:1048300023050E9469058091EA0390E08E54984F09
:104840000E94A91B81EB92E00E94D80F0E942305D1
:104850000E9469058091E60390E00E94B21B8BE6FE
:1048600093E00E94D80F0E9423050E946905809161
:10487000E50390E00E94B21B8BE693E00E94D80F04
:104880000E9423050E9469058091E40390E00E9444
:10489000A91B8B8D9C8DAD8DBE8D4396A11DB11D29
:1048A0008B8F9C8FAD8FBE8F93E1490E511C611C85
:1048B000711CA0EF8A16AFEF9A06A1E0AA06B10418
:1048C00009F0D2CD77C7C1010197F1F70E94CF0956
:1048D000DC01CB0188199909AA09BB0980319742EB
:1048E000A105B10580F38091860690918706A0917D
:1048F0008806B09189068FA398A7A9A7BAA7209187
:1049000082063091830640918406509185062BA73C
:104910003CA74DA75EA780907E0690907F06A09052
:104920008006B0908106B7FAB094B7F8B094A501AC
:104930009401C501B4010E94812F6B017C012BA55C
:104940003CA54DA55EA5CA01B9010E94812F9B011E
:10495000AC01C701B6010E94B62D6B017C012FA1ED
:1049600038A549A55AA5CA01B9010E94812F9B010A
:10497000AC01C701B6010E94B62D0E9444306B0104
:104980007C0120E030E0A9010E94222E882309F456
:10499000A8C58091A2069091A306A091A406B0910B
:1049A000A5062B968CAF9DAFAEAFBFAF2B972091D6
:1049B000A6063091A7064091A8065091A9062FA7F8
:1049C00038AB49AB5AAB8091AA069091AB06A09147
:1049D000AC06B091AD068BAB9CABADABBEAB209142
:1049E000AE063091AF064091B0065091B1062FABA4
:1049F00038AF49AF5AAF20E030E040E05FE32B969C
:104A00006CAD7DAD8EAD9FAD2B970E94812F6B96C7
:104A10006CAF7DAF8EAF9FAF6B9720E030E040E092
:104A20005FE36FA578A989A99AA90E94812F6F9643
:104A30006CAF7DAF8EAF9FAF6F9720E030E040E06E
:104A40005FE36BA97CA98DA99EA90E94812FA396E3
:104A50006CAF7DAF8EAF9FAFA39720E030E040E01A
:104A60005FE36FA978AD89AD9AAD0E94812FA796BB
:104A70006CAF7DAF8EAF9FAFA7972B962CAD3DADA2
:104A80004EAD5FAD2B97CA01B9010E94B62D6BA345
:104A90007CA38DA39EA32FA538A949A95AA9CA0111
:104AA000B9010E94B62D6B8F7C8F8D8F9E8F2BA9A5
:104AB0003CA94DA95EA9CA01B9010E94B62D6F8B10
:104AC000788F898F9A8F2FA938AD49AD5AADCA0119
:104AD000B9010E94B62D23966CAF7DAF8EAF9FAF0C
:104AE0002397A701960160E070E080E89FE30E94B1
:104AF000272E6B017C012B8D3C8D4D8D5E8D6FA91A
:104B000078AD89AD9AAD0E94812F2B013C012BA17C
:104B10003CA14DA15EA16BA97CA98DA99EA90E9473
:104B2000812F9B01AC01C301B2010E94B52D2B0165
:104B30003C01A7019601C501B4010E94812F9B0190
:104B4000AC01C301B2010E94B52D6F8F78A389A378
:104B50009AA32BA13CA14DA15EA16FA578A989A91B
:104B60009AA90E94812F4B015C012F89388D498DB4
:104B70005A8D6FA978AD89AD9AAD0E94812F9B01A6
:104B8000AC01C501B4010E94B62D4B015C01A70127
:104B900096016BA57CA58DA59EA50E94812F9B01EA
:104BA000AC01C501B4010E94B52D2B013C012B8D38
:104BB0003C8D4D8D5E8D6FA578A989A99AA90E941B
:104BC000812F9B01AC0160E070E080E89FE30E94D0
:104BD000B52D4B015C012F89388D498D5A8D6BA9FC
:104BE0007CA98DA99EA90E94812F9B01AC01C501C2
:104BF000B4010E94B52D4B015C01A70196016FA184
:104C000078A589A59AA50E94812F9B01AC01C501B9
:104C1000B4010E94B52D6B017C01A30192016B8D43
:104C20007C8D8D8D9E8D0E94812F4B015C012F8D7F
:104C300038A149A15AA16F89788D898D9A8D0E94DA
:104C4000812F9B01AC01C501B4010E94B52D6FA35A
:104C500078A789A79AA72F8D38A149A15AA1239691
:104C60006CAD7DAD8EAD9FAD23970E94812F4B0122
:104C70005C01A30192016BA17CA18DA19EA10E9468
:104C8000812F9B01AC01C501B4010E94B62D4B01DF
:104C90005C012B8D3C8D4D8D5E8DCA01B9010E944A
:104CA000B62DA70196010E94812F9B01AC01C50181
:104CB000B4010E94B52D6BA77CA78DA79EA7A30169
:104CC000920123966CAD7DAD8EAD9FAD23970E9472
:104CD000812F4B015C012F89388D498D5A8DCA0176
:104CE000B9010E94B62DA70196010E94812F9B0158
:104CF000AC01C501B4010E94B52D6B017C012F8D63
:104D000038A149A15AA16BA17CA18DA19EA10E94AD
:104D1000812F9B01AC01C701B6010E94B52D6BAF7D
:104D20007CAF8DAF9EAF2F8D38A149A15AA16B8D5D
:104D30007C8D8D8D9E8D0E94812F6B017C01A30146
:104D400092016F89788D898D9A8D0E94812F9B01A8
:104D5000AC01C701B6010E94B62D4B015C012FA129
:104D600038A549A55AA5CA01B9010E94812F6B0136
:104D70007C012BA53CA54DA55EA5CA01B9010E94E9
:104D8000812F9B01AC01C701B6010E94B62D6B01BA
:104D90007C012BAD3CAD4DAD5EADCA01B9010E94A9
:104DA000812F9B01AC01C701B6010E94B62D6B019A
:104DB0007C01A5019401C501B4010E94812F9B01D2
:104DC000AC01C701B6010E94B62D0E9444306B01B0
:104DD0007C019B01AC016FA178A589A59AA50E94D1
:104DE000272E6FA378A789A79AA7A70196016BA57D
:104DF0007CA58DA59EA50E94272E6BA77CA78DA7BD
:104E00009EA7A70196016BAD7CAD8DAD9EAD0E94B6
:104E1000272E6BAF7CAF8DAF9EAFA7019601C5016A
:104E2000B4010E94272E2F966CAF7DAF8EAF9FAF3F
:104E30002F978091B6069091B706A091B806B091D1
:104E4000B9068F8F98A3A9A3BAA34090CE0650901D
:104E5000CF066090D0067090D1062BED3FE049E47C
:104E600050E460918A0670918B0680918C06909137
:104E70008D060E94812F20E030E044E353E40E943D
:104E8000272E6B017C012BA53CA54DA55EA56BA132
:104E90007CA18DA19EA10E94812F4B015C012FA1BD
:104EA00038A549A55AA56B8D7C8D8D8D9E8D0E9450
:104EB000812F9B01AC01C501B4010E94B52D4B01AE
:104EC0005C012F962CAD3DAD4EAD5FAD2F976F8938
:104ED000788D898D9A8D0E94812F9B01AC01C5012F
:104EE000B4010E94B52D4B015C012BAD3CAD4DAD25
:104EF0005EAD23966CAD7DAD8EAD9FAD23970E94C8
:104F0000812F9B01AC01C501B4010E94B62D2F8DEC
:104F100038A149A15AA10E94812FA30192010E94A8
:104F2000812F20E030E0A9010E94B62D9B01AC0149
:104F3000C701B6010E94B52D63966CAF7DAF8EAFF1
:104F40009FAF639780918E0690918F06A0919006F7
:104F5000B0919106BC01CD0190582BED3FE049E4A2
:104F600050E40E94812F20E030E044E353E40E94AB
:104F7000272E6B017C012BAD3CAD4DAD5EAD6BA121
:104F80007CA18DA19EA10E94812F4B015C012F96D7
:104F90002CAD3DAD4EAD5FAD2F976B8D7C8D8D8D66
:104FA0009E8D0E94812F9B01AC01C501B4010E941E
:104FB000B62D4B015C012FA138A549A55AA56F89D3
:104FC000788D898D9A8D0E94812F9B01AC01C5013E
:104FD000B4010E94B52D4B015C012BA53CA54DA54C
:104FE0005EA523966CAD7DAD8EAD9FAD23970E94DF
:104FF000812F9B01AC01C501B4010E94B52D2F8DFD
:1050000038A149A15AA10E94812FA30192010E94B7
:10501000812F20E030E0A9010E94B62D9B01AC0158
:10502000C701B6010E94B52D67966CAF7DAF8EAFFC
:105030009FAF67978091920690919306A0919406F6
:10504000B0919506BC01CD0190582BED3FE049E4AD
:1050500050E40E94812F20E030E044E353E40E94BA
:10506000272E6B017C012F962CAD3DAD4EAD5FAD73
:105070002F976BA17CA18DA19EA10E94812F4B0136
:105080005C012BAD3CAD4DAD5EAD6B8D7C8D8D8DE2
:105090009E8D0E94812F9B01AC01C501B4010E942D
:1050A000B52D4B015C012BA53CA54DA55EA56F89D7
:1050B000788D898D9A8D0E94812F9B01AC01C5014D
:1050C000B4010E94B62D4B015C012FA138A549A562
:1050D0005AA523966CAD7DAD8EAD9FAD23970E94F2
:1050E000812F9B01AC01C501B4010E94B52D2F8D0C
:1050F00038A149A15AA10E94812FA30192010E94C7
:10510000812F20E030E0A9010E94B62D9B01AC0167
:10511000C701B6010E94B52D6B017C014090CA0603
:105120005090CB066090CC067090CD066F966CAD1B
:105130007DAD8EAD9FAD6F97905863962CAD3DAD14
:105140004EAD5FAD63970E94812F4B015C01679666
:105150002CAD3DAD4EAD5FAD6797A3966CAD7DAD0B
:105160008EAD9FADA3970E94812F9B01AC01C5011D
:10517000B4010E94B52D4B015C01A7019601A796D1
:105180006CAD7DAD8EAD9FADA7970E94812F9B0129
:10519000AC01C501B4010E94B52D4B015C01A30116
:1051A00092016FA178A589A59AA50E94812F9B01E4
:1051B000AC01C501B4010E94B52D2F8D38A149A1C4
:1051C0005AA10E94812F2B962CAD3DAD4EAD5FAD07
:1051D0002B970E94B62D6B8F7C8F8D8F9E8F639641
:1051E0002CAD3DAD4EAD5FAD63976B966CAD7DADB7
:1051F0008EAD9FAD6B970E94812F4B015C01A70183
:105200009601A3966CAD7DAD8EAD9FADA3970E9428
:10521000812F9B01AC01C501B4010E94B62D4B0149
:105220005C0167962CAD3DAD4EAD5FAD6797A7961F
:105230006CAD7DAD8EAD9FADA7970E94812F9B0178
:10524000AC01C501B4010E94B52D4B015C01A30165
:1052500092016BA57CA58DA59EA50E94812F9B0127
:10526000AC01C501B4010E94B52D2F8D38A149A113
:105270005AA10E94812F2FA538A949A95AA90E9495
:10528000B62D6F8B788F898F9A8F67962CAD3DAD39
:105290004EAD5FAD67976B966CAD7DAD8EAD9FAD3E
:1052A0006B970E94812F4B015C01A70196016F96BD
:1052B0006CAD7DAD8EAD9FAD6F970E94812F9B0130
:1052C000AC01C501B4010E94B52D4B015C01639690
:1052D0002CAD3DAD4EAD5FAD6397A7966CAD7DAD8A
:1052E0008EAD9FADA7970E94812F9B01AC01C50198
:1052F000B4010E94B62D4B015C01A30192016BAD7C
:105300007CAD8DAD9EAD0E94812F9B01AC01C5018E
:10531000B4010E94B52D2F8D38A149A15AA10E9438
:10532000812F2BA93CA94DA95EA90E94B62D6BA384
:105330007CA38DA39EA3A70196016B966CAD7DAD5A
:105340008EAD9FAD6B970E94812F6B017C0167969C
:105350002CAD3DAD4EAD5FAD67976F966CAD7DAD3D
:105360008EAD9FAD6F970E94812F9B01AC01C7014D
:10537000B6010E94B62D6B017C0163962CAD3DAD4C
:105380004EAD5FAD6397A3966CAD7DAD8EAD9FAD19
:10539000A3970E94812F9B01AC01C701B6010E9417
:1053A000B52D6B017C01A30192012F966CAD7DADF3
:1053B0008EAD9FAD2F970E94812F9B01AC01C7013D
:1053C000B6010E94B52D2F8D38A149A15AA10E9486
:1053D000812F2FA938AD49AD5AAD0E94B62D4B0192
:1053E0005C012B8D3C8D4D8D5E8DCA01B9010E94F3
:1053F000812F6B017C012F89388D498D5A8DCA010F
:10540000B9010E94812F9B01AC01C701B6010E9426
:10541000B62D6B017C012BA13CA14DA15EA1CA015F
:10542000B9010E94812F9B01AC01C701B6010E9406
:10543000B62D6B017C01A5019401C501B4010E9448
:10544000812F9B01AC01C701B6010E94B62D0E94BD
:1054500044309B01AC0160E070E080E89FE30E9473
:10546000272E6B017C019B01AC016B8D7C8D8D8D9A
:105470009E8D0E94812F6093A2067093A306809355
:10548000A4069093A506A70196016F89788D898D52
:105490009A8D0E94812F6093A6067093A706809331
:1054A000A8069093A906A70196016BA17CA18DA1E6
:1054B0009EA10E94812F6093AA067093AB068093F1
:1054C000AC069093AD06A7019601C501B4010E94F8
:1054D000812F6093AE067093AF068093B0069093D1
:1054E000B1066091A2067091A3068091A4069091E6
:1054F000A5060E94611584E692E00E94D80F609193
:10550000A6067091A7068091A8069091A9060E9410
:10551000611584E692E00E94D80F6091AA0670910E
:10552000AB068091AC069091AD060E94611584E6B1
:1055300092E00E94D80F6091AE067091AF06809104
:10554000B0069091B1060E94611584E692E00E9437
:10555000D80F60917E0670917F06809180069091B1
:1055600081060E94611584E692E00E94D80F609146
:1055700082067091830680918406909185060E9430
:10558000611584E692E00E94D80F609186067091C2
:10559000870680918806909189060E9461158AE0AD
:1055A0000E94960F27962CAD3DAD4EAD5FAD27976F
:1055B0002E5E3F4F4F4F5F4F27962CAF3DAF4EAF04
:1055C0005FAF2797243031054240510509F4F2C0FE
:1055D00002E110E020E030E0AE014F5F5F4F279620
:1055E0006CAD7DAD8EAD9FAD27970E94E40F0E94FC
:1055F000E80E0E94CF094B015C01C0906A04D09074
:105600006B04E0906C04F0906D0469817A81072E40
:10561000000C880B990B0E94D12EA70196010E94C5
:10562000812F60937E0670937F068093800690930F
:1056300081066B817C81072E000C880B990B0E94E0
:10564000D12EA70196010E94812F6093820670934C
:10565000830680938406909385066D817E81072E54
:10566000000C880B990B0E94D12EA70196010E9475
:10567000812F6093860670938706809388069093A7
:105680008906C0906604D0906704E0906804F090AA
:1056900069046F817885072E000C880B990B0E9496
:1056A000D12EA70196010E94812F60938A067093E4
:1056B0008B0680938C0690938D0669857A85072EDC
:1056C000000C880B990B0E94D12EA70196010E9415
:1056D000812F60938E0670938F068093900690932F
:1056E00091066B857C85072E000C880B990B0E9418
:1056F000D12EA70196010E94812F6093920670938C
:10570000930680939406909395060E94CF096B01AF
:105710007C016093BE067093BF068093C006909391
:10572000C1068091BA069091BB06A091BC06B091CB
:10573000BD06A7019601281B390B4A0B5B0BCA015A
:10574000B9010E94CF2E20E034E244E759E40E94E0
:10575000272E9B01AC016093B6067093B706809329
:10576000B8069093B906C092BA06D092BB06E092F2
:10577000BC06F092BD066091B2067091B3068091AE
:10578000B4069091B5060E94B62D6093B206709350
:10579000B3068093B4069093B50695C880914804EB
:1057A00090914904019710F484E090E090934904AB
:1057B0008093480481E0809300020DC080914804EA
:1057C0009091490401968530910581F71092490422
:1057D00010924804EFCF80E090E0892B11F40C94F4
:1057E000221F0E9400000C94221F80E3860F0E945B
:1057F000960F21E00C942B2187B18F6087B988B177
:10580000807F88B981B1806F81B982B18F7082B990
:1058100080E680937C00EAE7F0E084EA80831092DF
:105820007B0084EE8083EBEEF3E010821182128223
:10583000138281E080871186148215821782168276
:1058400080E894E00E94E5018FE295E00E947702F3
:105850008DEF9FEF90933F0580933E051092710668
:105860001092700680E090E4909373068093720625
:1058700090937506809374069093770680937606CE
:1058800080E090E2909379068093780690937B066F
:1058900080937A0690937D0680937C0680E090E06A
:1058A000A0E8BFE38093A2069093A306A093A4066A
:1058B000B093A5061092A6061092A7061092A8060D
:1058C0001092A9061092AA061092AB061092AC068E
:1058D0001092AD061092AE061092AF061092B0066E
:1058E0001092B1061092B2061092B3061092B4064E
:1058F0001092B5061092B6061092B7061092B8062E
:105900001092B9061092BA061092BB061092BC060D
:105910001092BD061092BE061092BF061092C006ED
:105920001092C10683EC98EBA2E3BFE38093C2061A
:105930009093C306A093C406B093C50686E39AEF7E
:10594000AEE0BDE38093C6069093C706A093C80659
:10595000B093C9068EE097ECAAE1BFE38093CA0634
:105960009093CB06A093CC06B093CD0683EE94EA39
:10597000A7EFBCE38093CE069093CF06A093D0060A
:10598000B093D10608951F93FC0199278827BC0185
:10599000E89411911032E9F3193010F01E30C8F379
:1059A0001B3251F01D3249F4689406C00E94EA2C63
:1059B000610F711D811D911D119110531A30B0F3AB
:1059C0003EF490958095709561957F4F8F4F9F4FD6
:1059D0001F910895592F482F372F262F660F771FB5
:1059E000881F991F660F771F881F991F620F731FEB
:1059F000841F951F660F771F881F991F0895DB016D
:105A00008F939F930E94A22DBF91AF91A29F800D73
:105A1000911DA39F900DB29F900D11240895991B85
:105A200079E004C0991F961708F0961B881F7A9595
:105A3000C9F780950895AA1BBB1B51E107C0AA1F97
:105A4000BB1FA617B70710F0A61BB70B881F991F1F
:105A50005A95A9F780959095BC01CD01089597FBC3
:105A6000072E16F4009407D077FD09D00E941B2D55
:105A700007FC05D03EF4909581959F4F0895709551
:105A800061957F4F0895A1E21A2EAA1BBB1BFD0151
:105A90000DC0AA1FBB1FEE1FFF1FA217B307E4070D
:105AA000F50720F0A21BB30BE40BF50B661F771F65
:105AB000881F991F1A9469F7609570958095909545
:105AC0009B01AC01BD01CF010895052E97FB1EF48B
:105AD00000940E947C2D57FD07D00E94432D07FCA7
